{
  "contractName": "Betting",
  "abi": [
    {
      "inputs": [],
      "stateMutability": "nonpayable",
      "type": "constructor"
    },
    {
      "inputs": [],
      "name": "admin",
      "outputs": [
        {
          "internalType": "address payable",
          "name": "",
          "type": "address"
        }
      ],
      "stateMutability": "view",
      "type": "function"
    },
    {
      "inputs": [],
      "name": "isAdminFeeDeducted",
      "outputs": [
        {
          "internalType": "bool",
          "name": "",
          "type": "bool"
        }
      ],
      "stateMutability": "view",
      "type": "function"
    },
    {
      "inputs": [],
      "name": "isBetActive",
      "outputs": [
        {
          "internalType": "bool",
          "name": "",
          "type": "bool"
        }
      ],
      "stateMutability": "view",
      "type": "function"
    },
    {
      "inputs": [
        {
          "internalType": "uint256",
          "name": "",
          "type": "uint256"
        }
      ],
      "name": "players",
      "outputs": [
        {
          "internalType": "address payable",
          "name": "",
          "type": "address"
        }
      ],
      "stateMutability": "view",
      "type": "function"
    },
    {
      "inputs": [
        {
          "internalType": "address",
          "name": "",
          "type": "address"
        }
      ],
      "name": "playersTotalBet",
      "outputs": [
        {
          "internalType": "uint256",
          "name": "",
          "type": "uint256"
        }
      ],
      "stateMutability": "view",
      "type": "function"
    },
    {
      "inputs": [],
      "name": "randomNumber",
      "outputs": [
        {
          "internalType": "uint8",
          "name": "",
          "type": "uint8"
        }
      ],
      "stateMutability": "view",
      "type": "function"
    },
    {
      "inputs": [],
      "name": "totalBetAmount",
      "outputs": [
        {
          "internalType": "uint256",
          "name": "",
          "type": "uint256"
        }
      ],
      "stateMutability": "view",
      "type": "function"
    },
    {
      "inputs": [],
      "name": "betAmount",
      "outputs": [],
      "stateMutability": "payable",
      "type": "function"
    },
    {
      "inputs": [],
      "name": "getContractBalance",
      "outputs": [
        {
          "internalType": "uint256",
          "name": "",
          "type": "uint256"
        }
      ],
      "stateMutability": "view",
      "type": "function"
    },
    {
      "inputs": [],
      "name": "fees",
      "outputs": [],
      "stateMutability": "nonpayable",
      "type": "function"
    },
    {
      "inputs": [],
      "name": "selectWinner",
      "outputs": [],
      "stateMutability": "nonpayable",
      "type": "function"
    }
  ],
  "bytecode": "0x608060405234801561001057600080fd5b5033600160006101000a81548173ffffffffffffffffffffffffffffffffffffffff021916908373ffffffffffffffffffffffffffffffffffffffff1602179055506001600360006101000a81548160ff0219169083151502179055506000600360016101000a81548160ff021916908315150217905550610e8b806100976000396000f3fe60806040526004361061009c5760003560e01c8063a998595411610064578063a998595414610152578063b2df14981461017f578063ccbac9f5146101e4578063d24257c014610212578063f71d96cb1461021c578063f851a440146102815761009c565b806333a99e04146100a1578063613f4594146100b85780636f9fb98a146100e35780639450da031461010e5780639af1d35a1461013b575b600080fd5b3480156100ad57600080fd5b506100b66102c2565b005b3480156100c457600080fd5b506100cd6108d5565b6040518082815260200191505060405180910390f35b3480156100ef57600080fd5b506100f86108db565b6040518082815260200191505060405180910390f35b34801561011a57600080fd5b50610123610989565b60405180821515815260200191505060405180910390f35b34801561014757600080fd5b5061015061099c565b005b34801561015e57600080fd5b50610167610ae2565b60405180821515815260200191505060405180910390f35b34801561018b57600080fd5b506101ce600480360360208110156101a257600080fd5b81019080803573ffffffffffffffffffffffffffffffffffffffff169060200190929190505050610af5565b6040518082815260200191505060405180910390f35b3480156101f057600080fd5b506101f9610b0d565b604051808260ff16815260200191505060405180910390f35b61021a610b20565b005b34801561022857600080fd5b506102556004803603602081101561023f57600080fd5b8101908080359060200190929190505050610d8b565b604051808273ffffffffffffffffffffffffffffffffffffffff16815260200191505060405180910390f35b34801561028d57600080fd5b50610296610dc7565b604051808273ffffffffffffffffffffffffffffffffffffffff16815260200191505060405180910390f35b3373ffffffffffffffffffffffffffffffffffffffff16600160009054906101000a900473ffffffffffffffffffffffffffffffffffffffff1673ffffffffffffffffffffffffffffffffffffffff1614610368576040517f08c379a0000000000000000000000000000000000000000000000000000000008152600401808060200182810382526022815260200180610dee6022913960400191505060405180910390fd5b60011515600360009054906101000a900460ff161515146103f1576040517f08c379a000000000000000000000000000000000000000000000000000000000815260040180806020018281038252601f8152602001807f42657474696e672073686f756c6420626520696e204f70656e2073746174650081525060200191505060405180910390fd5b60011515600360019054906101000a900460ff1615151461047a576040517f08c379a000000000000000000000000000000000000000000000000000000000815260040180806020018281038252601a8152602001807f41646d696e20666565206e6f742079657420646564756374656400000000000081525060200191505060405180910390fd5b606444426000805490506040516020018084815260200183815260200182815260200193505050506040516020818303038152906040528051906020012060001c60ff16816104c557fe5b06600360026101000a81548160ff021916908360ff1602179055506001600360029054906101000a900460ff1660ff161015801561051657506021600360029054906101000a900460ff1660ff1611155b1561063a576000808154811061052857fe5b9060005260206000200160009054906101000a900473ffffffffffffffffffffffffffffffffffffffff1673ffffffffffffffffffffffffffffffffffffffff166108fc600360028054028161057a57fe5b049081150290604051600060405180830381858888f193505050501580156105a6573d6000803e3d6000fd5b5060006001815481106105b557fe5b9060005260206000200160009054906101000a900473ffffffffffffffffffffffffffffffffffffffff1673ffffffffffffffffffffffffffffffffffffffff166108fc60036001600254028161060857fe5b049081150290604051600060405180830381858888f19350505050158015610634573d6000803e3d6000fd5b506108b0565b6021600360029054906101000a900460ff1660ff1611801561066f57506042600360029054906101000a900460ff1660ff1611155b1561079457600060018154811061068257fe5b9060005260206000200160009054906101000a900473ffffffffffffffffffffffffffffffffffffffff1673ffffffffffffffffffffffffffffffffffffffff166108fc60036002805402816106d457fe5b049081150290604051600060405180830381858888f19350505050158015610700573d6000803e3d6000fd5b50600060028154811061070f57fe5b9060005260206000200160009054906101000a900473ffffffffffffffffffffffffffffffffffffffff1673ffffffffffffffffffffffffffffffffffffffff166108fc60036001600254028161076257fe5b049081150290604051600060405180830381858888f1935050505015801561078e573d6000803e3d6000fd5b506108af565b60006002815481106107a257fe5b9060005260206000200160009054906101000a900473ffffffffffffffffffffffffffffffffffffffff1673ffffffffffffffffffffffffffffffffffffffff166108fc60036002805402816107f457fe5b049081150290604051600060405180830381858888f19350505050158015610820573d6000803e3d6000fd5b506000808154811061082e57fe5b9060005260206000200160009054906101000a900473ffffffffffffffffffffffffffffffffffffffff1673ffffffffffffffffffffffffffffffffffffffff166108fc60036001600254028161088157fe5b049081150290604051600060405180830381858888f193505050501580156108ad573d6000803e3d6000fd5b505b5b60006002819055506000600360006101000a81548160ff021916908315150217905550565b60025481565b60003373ffffffffffffffffffffffffffffffffffffffff16600160009054906101000a900473ffffffffffffffffffffffffffffffffffffffff1673ffffffffffffffffffffffffffffffffffffffff1614610983576040517f08c379a0000000000000000000000000000000000000000000000000000000008152600401808060200182810382526022815260200180610dee6022913960400191505060405180910390fd5b47905090565b600360019054906101000a900460ff1681565b3373ffffffffffffffffffffffffffffffffffffffff16600160009054906101000a900473ffffffffffffffffffffffffffffffffffffffff1673ffffffffffffffffffffffffffffffffffffffff1614610a42576040517f08c379a0000000000000000000000000000000000000000000000000000000008152600401808060200182810382526022815260200180610dee6022913960400191505060405180910390fd5b60001515600360019054906101000a900460ff16151514610aae576040517f08c379a0000000000000000000000000000000000000000000000000000000008152600401808060200182810382526022815260200180610e106022913960400191505060405180910390fd5b606460025481610aba57fe5b04600254036002819055506001600360016101000a81548160ff021916908315150217905550565b600360009054906101000a900460ff1681565b60046020528060005260406000206000915090505481565b600360029054906101000a900460ff1681565b670de0b6b3a7640000341015610b81576040517f08c379a0000000000000000000000000000000000000000000000000000000008152600401808060200182810382526024815260200180610e326024913960400191505060405180910390fd5b60011515600360009054906101000a900460ff16151514610c0a576040517f08c379a000000000000000000000000000000000000000000000000000000000815260040180806020018281038252601f8152602001807f42657474696e672073686f756c6420626520696e204f70656e2073746174650081525060200191505060405180910390fd5b600160009054906101000a900473ffffffffffffffffffffffffffffffffffffffff1673ffffffffffffffffffffffffffffffffffffffff163373ffffffffffffffffffffffffffffffffffffffff161415610cce576040517f08c379a000000000000000000000000000000000000000000000000000000000815260040180806020018281038252601c8152602001807f41646d696e206973206e6f7420656c696769626c6520746f206265740000000081525060200191505060405180910390fd5b6000339080600181540180825580915050600190039060005260206000200160009091909190916101000a81548173ffffffffffffffffffffffffffffffffffffffff021916908373ffffffffffffffffffffffffffffffffffffffff160217905550346002540160028190555034600460003373ffffffffffffffffffffffffffffffffffffffff1673ffffffffffffffffffffffffffffffffffffffff16815260200190815260200160002060008282540192505081905550565b60008181548110610d9857fe5b906000526020600020016000915054906101000a900473ffffffffffffffffffffffffffffffffffffffff1681565b600160009054906101000a900473ffffffffffffffffffffffffffffffffffffffff168156fe4f6e6c792041646d696e2063616e20706572666f726d207468697320616374696f6e41646d696e2046656520697320616c7265616479206465647563746564206f6e63654d696e696d756d2062657420616d6f756e74206d757374206265203e2031204574686572a26469706673582212209e4a156231d46a71795dbcffd84fe9b0ad041de69794913fe9dd9e72a86bfaa164736f6c63430007000033",
  "immutableReferences": {},
  "source": "pragma solidity 0.7.0;\r\n\r\ncontract Betting {\r\n    \r\n    /* DEFINING ALL THE STATE VARIABLES\r\n       1. players - Array containing players address\r\n       2. admin -  Contract admin\r\n       3. totalBetAmount - Total Betting Amount from all PLayers\r\n       4. isBetActive - Status of betting - Open, Close\r\n       5. randomNumber - Random Number calculated to verify winners\r\n    */\r\n    address payable[] public  players;\r\n    address payable public admin;\r\n    uint256 public totalBetAmount;\r\n    bool public isBetActive;\r\n    bool public isAdminFeeDeducted;\r\n    uint8 public randomNumber;\r\n    \r\n    /* Mapping between individual Players & their total bet amount\r\n    */\r\n    mapping(address => uint256) public playersTotalBet;\r\n    \r\n    /* Defining modifier for admin of Contract\r\n    */\r\n    modifier onlyAdmin() {\r\n       require (admin == msg.sender, \"Only Admin can perform this action\");\r\n        _;\r\n    }\r\n    \r\n    /* Defining modifier for minimum betting amount\r\n    */\r\n    modifier minimumBetAmount() {\r\n        require (msg.value >=  1 ether,\"Minimum bet amount must be > 1 Ether\");\r\n        _;\r\n    }\r\n    \r\n    /* Defining modifier for bet to be in Open state\r\n    */\r\n    modifier bettingStatus() {\r\n        require(isBetActive == true, \"Betting should be in Open state\");\r\n        _;\r\n    }\r\n    \r\n    /* Defining modifier for Admin fee\r\n    */\r\n    modifier adminFeeDeducted() {\r\n        require(isAdminFeeDeducted == false, \"Admin Fee is already deducted once\");\r\n        _;\r\n    }\r\n    \r\n    /* Defining modifier for so that Admin cannot bet amount\r\n    */\r\n    modifier adminNotEligible() {\r\n        require(msg.sender != admin, \"Admin is not eligible to bet\");\r\n        _;\r\n    }\r\n    \r\n    /* Contract Constructor, runs once at contract deployment\r\n        1. Setting admin of contract\r\n        2. Betting is Open\r\n    */\r\n    constructor()  {\r\n        admin = msg.sender;\r\n        isBetActive = true;\r\n        isAdminFeeDeducted = false;\r\n    }\r\n\r\n    /* This function will add players & their betting amount\r\n        Validation - minimum betting Amount\r\n        For Demo purpose minimum betting amount >= 1 Ether\r\n        Adding Players address to array of players address \r\n        Incrementing totalBetAmount as per amount transferred by player\r\n    */\r\n    function betAmount() payable minimumBetAmount bettingStatus adminNotEligible public{\r\n        players.push(msg.sender); \r\n        totalBetAmount = totalBetAmount + msg.value;\r\n        playersTotalBet[msg.sender]+=msg.value;\r\n    } \r\n    \r\n    /* This function will give Smart Contract total balance amount\r\n        Validation - only Admin can call this function\r\n    */\r\n    function getContractBalance() onlyAdmin public view returns(uint) {\r\n        return address(this).balance;\r\n    }\r\n\r\n    /* This can be put in separate Smart Contract for code reusability\r\n       Also we can use Chainlink - https://docs.chain.link/docs/get-a-random-number\r\n       For Demo purpose we are not implmenting above 2\r\n    \r\n    // // returns a very big pseodo-random integer no.\r\n    // function random() public view returns(uint256) {\r\n    //     return uint8(uint256(keccak256(abi.encodePacked(block.difficulty, block.timestamp, players.length))))%100;\r\n    // }\r\n    */\r\n    \r\n    /* This function will deduct Smart Contract fee as .1% from totalBetAmount\r\n       Validation : Only Admin can call this function\r\n    */\r\n    function fees() onlyAdmin adminFeeDeducted public{\r\n        totalBetAmount = totalBetAmount - totalBetAmount/100;\r\n        isAdminFeeDeducted = true;\r\n    }\r\n\r\n\r\n    /* This function will pick 2 players as winners and distribute amount as per below\r\n       1. One winner will receive 2/3 of totalBetAmount from Contract balance\r\n       2. Second winner will receive 1/3 of totalBetAmount from Contract balance\r\n       3. Validation : \r\n                     Only Admin can call this function\r\n                     Betting should be in open status\r\n       4. We are generating number by calculating keccak256 of global variables available\r\n       5. Random Number will be between 1 & 99\r\n       6. Based on Random Number Range, only 2 players will get amount, \r\n       7. 3rd player will not receive any amount as per requirement specs\r\n       8. For cross-check purpose returning Random Number, to be fair\r\n       \r\n       Note: Initially I thought of using odd/even number but this will be partial to 3rd player\r\n             And one player will always be a loser\r\n             So change the implmentation approach & adopted new one as above mentioned\r\n             For 2 players game Odd-Even approach can be used\r\n    */\r\n    function selectWinner() onlyAdmin bettingStatus public{\r\n        require(isAdminFeeDeducted == true,\"Admin fee not yet deducted\");\r\n        randomNumber = uint8(uint256(keccak256(abi.encodePacked(block.difficulty, block.timestamp, players.length))))%100;\r\n\r\n        /* DEPRECATED IMPLMENTATION as mentioned above\r\n        \r\n        // if (r % 2 == 0) {\r\n        //     players[0].transfer(totalAmount*2/3);\r\n        //     players[1].transfer(totalAmount*1/3);\r\n        //   } \r\n        // else {\r\n        //     players[1].transfer(totalAmount*2/3);\r\n        //     players[0].transfer(totalAmount*1/3);\r\n        // }\r\n        */\r\n        \r\n        if (randomNumber >= 1 && randomNumber <= 33) {\r\n            players[0].transfer(totalBetAmount*2/3);\r\n            players[1].transfer(totalBetAmount*1/3);\r\n                           } \r\n        else if (randomNumber > 33 && randomNumber <= 66) {\r\n            players[1].transfer(totalBetAmount*2/3);\r\n            players[2].transfer(totalBetAmount*1/3);\r\n                                } \r\n        else {\r\n            players[2].transfer(totalBetAmount*2/3);\r\n            players[0].transfer(totalBetAmount*1/3);\r\n             }\r\n        \r\n        totalBetAmount=0;\r\n        isBetActive= false;\r\n    }\r\n }",
  "sourcePath": "C:/Users/Neha/Desktop/Omkar/Blockchain/superfuture-system/contracts/Betting.sol",
  "compiler": {
    "name": "solc",
    "version": "0.7.0+commit.9e61f92b.Emscripten.clang"
  },
  "schemaVersion": "3.2.5",
  "updatedAt": "2021-01-02T22:22:14.061Z",
  "devdoc": {
    "kind": "dev",
    "methods": {},
    "version": 1
  },
  "userdoc": {
    "kind": "user",
    "methods": {},
    "version": 1
  }
}